{
  "_format": "hh-sol-artifact-1",
  "contractName": "Contract",
  "sourceName": "contracts/Contract.sol",
  "abi": [
    {
      "inputs": [
        {
          "internalType": "string",
          "name": "name",
          "type": "string"
        },
        {
          "internalType": "string",
          "name": "symbol",
          "type": "string"
        },
        {
          "internalType": "string",
          "name": "baseTokenURI",
          "type": "string"
        },
        {
          "internalType": "uint256[]",
          "name": "reservedIds",
          "type": "uint256[]"
        },
        {
          "internalType": "address[]",
          "name": "reservedAddresses",
          "type": "address[]"
        }
      ],
      "stateMutability": "nonpayable",
      "type": "constructor"
    },
    {
      "inputs": [
        {
          "internalType": "address",
          "name": "sender",
          "type": "address"
        },
        {
          "internalType": "uint256",
          "name": "tokenId",
          "type": "uint256"
        },
        {
          "internalType": "address",
          "name": "owner",
          "type": "address"
        }
      ],
      "name": "ERC721IncorrectOwner",
      "type": "error"
    },
    {
      "inputs": [
        {
          "internalType": "address",
          "name": "operator",
          "type": "address"
        },
        {
          "internalType": "uint256",
          "name": "tokenId",
          "type": "uint256"
        }
      ],
      "name": "ERC721InsufficientApproval",
      "type": "error"
    },
    {
      "inputs": [
        {
          "internalType": "address",
          "name": "approver",
          "type": "address"
        }
      ],
      "name": "ERC721InvalidApprover",
      "type": "error"
    },
    {
      "inputs": [
        {
          "internalType": "address",
          "name": "operator",
          "type": "address"
        }
      ],
      "name": "ERC721InvalidOperator",
      "type": "error"
    },
    {
      "inputs": [
        {
          "internalType": "address",
          "name": "owner",
          "type": "address"
        }
      ],
      "name": "ERC721InvalidOwner",
      "type": "error"
    },
    {
      "inputs": [
        {
          "internalType": "address",
          "name": "receiver",
          "type": "address"
        }
      ],
      "name": "ERC721InvalidReceiver",
      "type": "error"
    },
    {
      "inputs": [
        {
          "internalType": "address",
          "name": "sender",
          "type": "address"
        }
      ],
      "name": "ERC721InvalidSender",
      "type": "error"
    },
    {
      "inputs": [
        {
          "internalType": "uint256",
          "name": "tokenId",
          "type": "uint256"
        }
      ],
      "name": "ERC721NonexistentToken",
      "type": "error"
    },
    {
      "inputs": [
        {
          "internalType": "address",
          "name": "owner",
          "type": "address"
        }
      ],
      "name": "OwnableInvalidOwner",
      "type": "error"
    },
    {
      "inputs": [
        {
          "internalType": "address",
          "name": "account",
          "type": "address"
        }
      ],
      "name": "OwnableUnauthorizedAccount",
      "type": "error"
    },
    {
      "anonymous": false,
      "inputs": [
        {
          "indexed": true,
          "internalType": "address",
          "name": "owner",
          "type": "address"
        },
        {
          "indexed": true,
          "internalType": "address",
          "name": "approved",
          "type": "address"
        },
        {
          "indexed": true,
          "internalType": "uint256",
          "name": "tokenId",
          "type": "uint256"
        }
      ],
      "name": "Approval",
      "type": "event"
    },
    {
      "anonymous": false,
      "inputs": [
        {
          "indexed": true,
          "internalType": "address",
          "name": "owner",
          "type": "address"
        },
        {
          "indexed": true,
          "internalType": "address",
          "name": "operator",
          "type": "address"
        },
        {
          "indexed": false,
          "internalType": "bool",
          "name": "approved",
          "type": "bool"
        }
      ],
      "name": "ApprovalForAll",
      "type": "event"
    },
    {
      "anonymous": false,
      "inputs": [
        {
          "indexed": false,
          "internalType": "uint256",
          "name": "_fromTokenId",
          "type": "uint256"
        },
        {
          "indexed": false,
          "internalType": "uint256",
          "name": "_toTokenId",
          "type": "uint256"
        }
      ],
      "name": "BatchMetadataUpdate",
      "type": "event"
    },
    {
      "anonymous": false,
      "inputs": [
        {
          "indexed": false,
          "internalType": "uint256",
          "name": "_tokenId",
          "type": "uint256"
        }
      ],
      "name": "MetadataUpdate",
      "type": "event"
    },
    {
      "anonymous": false,
      "inputs": [
        {
          "indexed": true,
          "internalType": "address",
          "name": "previousOwner",
          "type": "address"
        },
        {
          "indexed": true,
          "internalType": "address",
          "name": "newOwner",
          "type": "address"
        }
      ],
      "name": "OwnershipTransferred",
      "type": "event"
    },
    {
      "anonymous": false,
      "inputs": [
        {
          "indexed": true,
          "internalType": "address",
          "name": "recipient",
          "type": "address"
        },
        {
          "indexed": false,
          "internalType": "uint256",
          "name": "tokenId",
          "type": "uint256"
        }
      ],
      "name": "TokenMinted",
      "type": "event"
    },
    {
      "anonymous": false,
      "inputs": [
        {
          "indexed": true,
          "internalType": "address",
          "name": "from",
          "type": "address"
        },
        {
          "indexed": true,
          "internalType": "address",
          "name": "to",
          "type": "address"
        },
        {
          "indexed": true,
          "internalType": "uint256",
          "name": "tokenId",
          "type": "uint256"
        }
      ],
      "name": "Transfer",
      "type": "event"
    },
    {
      "inputs": [
        {
          "internalType": "address[]",
          "name": "addresses",
          "type": "address[]"
        },
        {
          "internalType": "uint256[]",
          "name": "quotas",
          "type": "uint256[]"
        }
      ],
      "name": "addWhitelistAddresses",
      "outputs": [],
      "stateMutability": "nonpayable",
      "type": "function"
    },
    {
      "inputs": [
        {
          "internalType": "address",
          "name": "to",
          "type": "address"
        },
        {
          "internalType": "uint256",
          "name": "tokenId",
          "type": "uint256"
        }
      ],
      "name": "approve",
      "outputs": [],
      "stateMutability": "nonpayable",
      "type": "function"
    },
    {
      "inputs": [
        {
          "internalType": "address",
          "name": "owner",
          "type": "address"
        }
      ],
      "name": "balanceOf",
      "outputs": [
        {
          "internalType": "uint256",
          "name": "",
          "type": "uint256"
        }
      ],
      "stateMutability": "view",
      "type": "function"
    },
    {
      "inputs": [],
      "name": "batchMint",
      "outputs": [],
      "stateMutability": "payable",
      "type": "function"
    },
    {
      "inputs": [
        {
          "internalType": "uint256",
          "name": "tokenId",
          "type": "uint256"
        }
      ],
      "name": "getApproved",
      "outputs": [
        {
          "internalType": "address",
          "name": "",
          "type": "address"
        }
      ],
      "stateMutability": "view",
      "type": "function"
    },
    {
      "inputs": [
        {
          "internalType": "address",
          "name": "addr",
          "type": "address"
        }
      ],
      "name": "hasMintedFullQuota",
      "outputs": [
        {
          "internalType": "bool",
          "name": "",
          "type": "bool"
        }
      ],
      "stateMutability": "view",
      "type": "function"
    },
    {
      "inputs": [
        {
          "internalType": "address",
          "name": "owner",
          "type": "address"
        },
        {
          "internalType": "address",
          "name": "operator",
          "type": "address"
        }
      ],
      "name": "isApprovedForAll",
      "outputs": [
        {
          "internalType": "bool",
          "name": "",
          "type": "bool"
        }
      ],
      "stateMutability": "view",
      "type": "function"
    },
    {
      "inputs": [],
      "name": "mintingFee",
      "outputs": [
        {
          "internalType": "uint256",
          "name": "",
          "type": "uint256"
        }
      ],
      "stateMutability": "view",
      "type": "function"
    },
    {
      "inputs": [],
      "name": "name",
      "outputs": [
        {
          "internalType": "string",
          "name": "",
          "type": "string"
        }
      ],
      "stateMutability": "view",
      "type": "function"
    },
    {
      "inputs": [],
      "name": "owner",
      "outputs": [
        {
          "internalType": "address",
          "name": "",
          "type": "address"
        }
      ],
      "stateMutability": "view",
      "type": "function"
    },
    {
      "inputs": [
        {
          "internalType": "uint256",
          "name": "tokenId",
          "type": "uint256"
        }
      ],
      "name": "ownerOf",
      "outputs": [
        {
          "internalType": "address",
          "name": "",
          "type": "address"
        }
      ],
      "stateMutability": "view",
      "type": "function"
    },
    {
      "inputs": [],
      "name": "renounceOwnership",
      "outputs": [],
      "stateMutability": "nonpayable",
      "type": "function"
    },
    {
      "inputs": [
        {
          "internalType": "address",
          "name": "from",
          "type": "address"
        },
        {
          "internalType": "address",
          "name": "to",
          "type": "address"
        },
        {
          "internalType": "uint256",
          "name": "tokenId",
          "type": "uint256"
        }
      ],
      "name": "safeTransferFrom",
      "outputs": [],
      "stateMutability": "nonpayable",
      "type": "function"
    },
    {
      "inputs": [
        {
          "internalType": "address",
          "name": "from",
          "type": "address"
        },
        {
          "internalType": "address",
          "name": "to",
          "type": "address"
        },
        {
          "internalType": "uint256",
          "name": "tokenId",
          "type": "uint256"
        },
        {
          "internalType": "bytes",
          "name": "data",
          "type": "bytes"
        }
      ],
      "name": "safeTransferFrom",
      "outputs": [],
      "stateMutability": "nonpayable",
      "type": "function"
    },
    {
      "inputs": [
        {
          "internalType": "address",
          "name": "operator",
          "type": "address"
        },
        {
          "internalType": "bool",
          "name": "approved",
          "type": "bool"
        }
      ],
      "name": "setApprovalForAll",
      "outputs": [],
      "stateMutability": "nonpayable",
      "type": "function"
    },
    {
      "inputs": [
        {
          "internalType": "uint256",
          "name": "newFee",
          "type": "uint256"
        }
      ],
      "name": "setMintingFee",
      "outputs": [],
      "stateMutability": "nonpayable",
      "type": "function"
    },
    {
      "inputs": [
        {
          "internalType": "bytes4",
          "name": "interfaceId",
          "type": "bytes4"
        }
      ],
      "name": "supportsInterface",
      "outputs": [
        {
          "internalType": "bool",
          "name": "",
          "type": "bool"
        }
      ],
      "stateMutability": "view",
      "type": "function"
    },
    {
      "inputs": [],
      "name": "symbol",
      "outputs": [
        {
          "internalType": "string",
          "name": "",
          "type": "string"
        }
      ],
      "stateMutability": "view",
      "type": "function"
    },
    {
      "inputs": [],
      "name": "toggleWhitelist",
      "outputs": [],
      "stateMutability": "nonpayable",
      "type": "function"
    },
    {
      "inputs": [
        {
          "internalType": "uint256",
          "name": "tokenId",
          "type": "uint256"
        }
      ],
      "name": "tokenURI",
      "outputs": [
        {
          "internalType": "string",
          "name": "",
          "type": "string"
        }
      ],
      "stateMutability": "view",
      "type": "function"
    },
    {
      "inputs": [
        {
          "internalType": "address",
          "name": "from",
          "type": "address"
        },
        {
          "internalType": "address",
          "name": "to",
          "type": "address"
        },
        {
          "internalType": "uint256",
          "name": "tokenId",
          "type": "uint256"
        }
      ],
      "name": "transferFrom",
      "outputs": [],
      "stateMutability": "nonpayable",
      "type": "function"
    },
    {
      "inputs": [
        {
          "internalType": "address",
          "name": "newOwner",
          "type": "address"
        }
      ],
      "name": "transferOwnership",
      "outputs": [],
      "stateMutability": "nonpayable",
      "type": "function"
    },
    {
      "inputs": [],
      "name": "whitelistEnabled",
      "outputs": [
        {
          "internalType": "bool",
          "name": "",
          "type": "bool"
        }
      ],
      "stateMutability": "view",
      "type": "function"
    },
    {
      "inputs": [],
      "name": "withdraw",
      "outputs": [],
      "stateMutability": "nonpayable",
      "type": "function"
    }
  ],
  "bytecode": "0x6080604052600b805460ff191660011790556802b5e3af16b1880000600e553480156200002b57600080fd5b506040516200286a3803806200286a8339810160408190526200004e91620009b3565b33858560006200005f838262000b22565b5060016200006e828262000b22565b5050506001600160a01b038116620000a157604051631e4fbdf760e01b8152600060048201526024015b60405180910390fd5b620000ac816200022c565b508051825114620001265760405162461bcd60e51b815260206004820152603960248201527f4d69736d61746368206265747765656e20726573657276656449647320616e6460448201527f207265736572766564416464726573736573206c656e67746800000000000000606482015260840162000098565b600c62000134848262000b22565b5060005b82518110156200022057600083828151811062000159576200015962000bee565b6020026020010151905060008383815181106200017a576200017a62000bee565b602002602001015190506000821180156200019757506113888211155b620001e55760405162461bcd60e51b815260206004820152601860248201527f5265736572766564204944206f7574206f662072616e67650000000000000000604482015260640162000098565b620001f181836200027e565b506000908152600a60205260409020805460ff1916600117905580620002178162000c04565b91505062000138565b50505050505062000cb5565b600780546001600160a01b038381166001600160a01b0319831681179093556040519116919082907f8be0079c531659141344cd1fd0a4f28419497f9722a3daafe3b4186f6b6457e090600090a35050565b620002a0828260405180602001604052806000815250620002a460201b60201c565b5050565b620002b08383620002c4565b620002bf60008484846200032e565b505050565b6001600160a01b038216620002f057604051633250574960e11b81526000600482015260240162000098565b6000620002ff83838362000465565b90506001600160a01b03811615620002bf576040516339e3563760e11b81526000600482015260240162000098565b6001600160a01b0383163b156200045f57604051630a85bd0160e11b81526001600160a01b0384169063150b7a02906200037390339088908790879060040162000c2c565b6020604051808303816000875af1925050508015620003b1575060408051601f3d908101601f19168201909252620003ae9181019062000c82565b60015b6200041f573d808015620003e2576040519150601f19603f3d011682016040523d82523d6000602084013e620003e7565b606091505b5080516000036200041757604051633250574960e11b81526001600160a01b038516600482015260240162000098565b805181602001fd5b6001600160e01b03198116630a85bd0160e11b146200045d57604051633250574960e11b81526001600160a01b038516600482015260240162000098565b505b50505050565b6000828152600260205260408120546001600160a01b039081169083161562000495576200049581848662000564565b6001600160a01b03811615620004d557620004b46000858180620005ce565b6001600160a01b038116600090815260036020526040902080546000190190555b6001600160a01b0385161562000505576001600160a01b0385166000908152600360205260409020805460010190555b60008481526002602052604080822080546001600160a01b0319166001600160a01b0389811691821790925591518793918516917fddf252ad1be2c89b69c2b068fc378daa952ba7f163c4a11628f55a4df523b3ef91a4949350505050565b62000571838383620006fc565b620002bf576001600160a01b038316620005a257604051637e27328960e01b81526004810182905260240162000098565b60405163177e802f60e01b81526001600160a01b03831660048201526024810182905260440162000098565b8080620005e357506001600160a01b03821615155b15620006cc576000620005f68462000785565b90506001600160a01b03831615801590620006235750826001600160a01b0316816001600160a01b031614155b80156200065657506001600160a01b0380821660009081526005602090815260408083209387168352929052205460ff16155b15620006815760405163a9fbf51f60e01b81526001600160a01b038416600482015260240162000098565b8115620006ca5783856001600160a01b0316826001600160a01b03167f8c5be1e5ebec7d5bd14f71427d1e84f3dd0314c0f7b2291e5b200ac8c7c3b92560405160405180910390a45b505b5050600090815260046020526040902080546001600160a01b0319166001600160a01b0392909216919091179055565b60006001600160a01b038316158015906200077d5750826001600160a01b0316846001600160a01b031614806200075857506001600160a01b0380851660009081526005602090815260408083209387168352929052205460ff165b806200077d57506000828152600460205260409020546001600160a01b038481169116145b949350505050565b6000818152600260205260408120546001600160a01b031680620007c057604051637e27328960e01b81526004810184905260240162000098565b92915050565b634e487b7160e01b600052604160045260246000fd5b604051601f8201601f191681016001600160401b0381118282101715620008075762000807620007c6565b604052919050565b60005b838110156200082c57818101518382015260200162000812565b50506000910152565b600082601f8301126200084757600080fd5b81516001600160401b03811115620008635762000863620007c6565b62000878601f8201601f1916602001620007dc565b8181528460208386010111156200088e57600080fd5b6200077d8260208301602087016200080f565b60006001600160401b03821115620008bd57620008bd620007c6565b5060051b60200190565b600082601f830112620008d957600080fd5b81516020620008f2620008ec83620008a1565b620007dc565b82815260059290921b840181019181810190868411156200091257600080fd5b8286015b848110156200092f578051835291830191830162000916565b509695505050505050565b600082601f8301126200094c57600080fd5b815160206200095f620008ec83620008a1565b82815260059290921b840181019181810190868411156200097f57600080fd5b8286015b848110156200092f5780516001600160a01b0381168114620009a55760008081fd5b835291830191830162000983565b600080600080600060a08688031215620009cc57600080fd5b85516001600160401b0380821115620009e457600080fd5b620009f289838a0162000835565b9650602088015191508082111562000a0957600080fd5b62000a1789838a0162000835565b9550604088015191508082111562000a2e57600080fd5b62000a3c89838a0162000835565b9450606088015191508082111562000a5357600080fd5b62000a6189838a01620008c7565b9350608088015191508082111562000a7857600080fd5b5062000a87888289016200093a565b9150509295509295909350565b600181811c9082168062000aa957607f821691505b60208210810362000aca57634e487b7160e01b600052602260045260246000fd5b50919050565b601f821115620002bf57600081815260208120601f850160051c8101602086101562000af95750805b601f850160051c820191505b8181101562000b1a5782815560010162000b05565b505050505050565b81516001600160401b0381111562000b3e5762000b3e620007c6565b62000b568162000b4f845462000a94565b8462000ad0565b602080601f83116001811462000b8e576000841562000b755750858301515b600019600386901b1c1916600185901b17855562000b1a565b600085815260208120601f198616915b8281101562000bbf5788860151825594840194600190910190840162000b9e565b508582101562000bde5787850151600019600388901b60f8161c191681555b5050505050600190811b01905550565b634e487b7160e01b600052603260045260246000fd5b60006001820162000c2557634e487b7160e01b600052601160045260246000fd5b5060010190565b600060018060a01b03808716835280861660208401525083604083015260806060830152825180608084015262000c6b8160a08501602087016200080f565b601f01601f19169190910160a00195945050505050565b60006020828403121562000c9557600080fd5b81516001600160e01b03198116811462000cae57600080fd5b9392505050565b611ba58062000cc56000396000f3fe60806040526004361061018b5760003560e01c8063675b9353116100d6578063a22cb4651161007f578063e3424c9311610059578063e3424c9314610431578063e985e9c514610439578063f2fde38b1461048257600080fd5b8063a22cb465146103d1578063b88d4fde146103f1578063c87b56dd1461041157600080fd5b80637e15144b116100b05780637e15144b146103895780638da5cb5b1461039e57806395d89b41146103bc57600080fd5b8063675b93531461033457806370a0823114610354578063715018a61461037457600080fd5b80632b4dc4a11161013857806351fb012d1161011257806351fb012d146102d65780635a64ad95146102f05780636352211e1461031457600080fd5b80632b4dc4a1146102815780633ccfd60b146102a157806342842e0e146102b657600080fd5b8063095ea7b311610169578063095ea7b31461021f578063238a47091461024157806323b872dd1461026157600080fd5b806301ffc9a71461019057806306fdde03146101c5578063081812fc146101e7575b600080fd5b34801561019c57600080fd5b506101b06101ab366004611632565b6104a2565b60405190151581526020015b60405180910390f35b3480156101d157600080fd5b506101da6104e6565b6040516101bc919061169f565b3480156101f357600080fd5b506102076102023660046116b2565b610578565b6040516001600160a01b0390911681526020016101bc565b34801561022b57600080fd5b5061023f61023a3660046116e7565b6105a1565b005b34801561024d57600080fd5b5061023f61025c3660046116b2565b6105b0565b34801561026d57600080fd5b5061023f61027c366004611711565b6105bd565b34801561028d57600080fd5b5061023f61029c366004611823565b610666565b3480156102ad57600080fd5b5061023f610765565b3480156102c257600080fd5b5061023f6102d1366004611711565b6107b8565b3480156102e257600080fd5b50600b546101b09060ff1681565b3480156102fc57600080fd5b50610306600e5481565b6040519081526020016101bc565b34801561032057600080fd5b5061020761032f3660046116b2565b6107d3565b34801561034057600080fd5b506101b061034f3660046118e3565b6107de565b34801561036057600080fd5b5061030661036f3660046118e3565b61082f565b34801561038057600080fd5b5061023f610890565b34801561039557600080fd5b5061023f6108a4565b3480156103aa57600080fd5b506007546001600160a01b0316610207565b3480156103c857600080fd5b506101da6108c0565b3480156103dd57600080fd5b5061023f6103ec3660046118fe565b6108cf565b3480156103fd57600080fd5b5061023f61040c36600461193a565b6108da565b34801561041d57600080fd5b506101da61042c3660046116b2565b6108f1565b61023f610a02565b34801561044557600080fd5b506101b06104543660046119fa565b6001600160a01b03918216600090815260056020908152604080832093909416825291909152205460ff1690565b34801561048e57600080fd5b5061023f61049d3660046118e3565b610c24565b60006001600160e01b031982167f490649060000000000000000000000000000000000000000000000000000000014806104e057506104e082610c7b565b92915050565b6060600080546104f590611a2d565b80601f016020809104026020016040519081016040528092919081815260200182805461052190611a2d565b801561056e5780601f106105435761010080835404028352916020019161056e565b820191906000526020600020905b81548152906001019060200180831161055157829003601f168201915b5050505050905090565b600061058382610d16565b506000828152600460205260409020546001600160a01b03166104e0565b6105ac828233610d4f565b5050565b6105b8610d5c565b600e55565b6001600160a01b0382166105ec57604051633250574960e11b8152600060048201526024015b60405180910390fd5b60006105f9838333610da2565b9050836001600160a01b0316816001600160a01b031614610660576040517f64283d7b0000000000000000000000000000000000000000000000000000000081526001600160a01b03808616600483015260248201849052821660448201526064016105e3565b50505050565b61066e610d5c565b80518251146106e55760405162461bcd60e51b815260206004820152602c60248201527f4d69736d61746368206265747765656e2061646472657373657320616e64207160448201527f756f746173206c656e677468000000000000000000000000000000000000000060648201526084016105e3565b60005b82518110156107605781818151811061070357610703611a67565b60200260200101516008600085848151811061072157610721611a67565b60200260200101516001600160a01b03166001600160a01b0316815260200190815260200160002081905550808061075890611a93565b9150506106e8565b505050565b61076d610d5c565b476107806007546001600160a01b031690565b6001600160a01b03166108fc829081150290604051600060405180830381858888f193505050501580156105ac573d6000803e3d6000fd5b610760838383604051806020016040528060008152506108da565b60006104e082610d16565b6001600160a01b038116600090815260086020526040812054810361080557506000919050565b506001600160a01b0316600090815260086020908152604080832054600990925290912054101590565b60006001600160a01b038216610874576040517f89c62b64000000000000000000000000000000000000000000000000000000008152600060048201526024016105e3565b506001600160a01b031660009081526003602052604090205490565b610898610d5c565b6108a26000610ea8565b565b6108ac610d5c565b600b805460ff19811660ff90911615179055565b6060600180546104f590611a2d565b6105ac338383610f07565b6108e58484846105bd565b61066084848484610fbf565b60606113888211156109455760405162461bcd60e51b815260206004820152601660248201527f546f6b656e204944206f7574206f662072616e67652e0000000000000000000060448201526064016105e3565b6000610950836107d3565b6001600160a01b0316036109a65760405162461bcd60e51b815260206004820152601260248201527f4e6f6e6578697374656e7420746f6b656e2e000000000000000000000000000060448201526064016105e3565b60006109b06110e8565b905060008151116109d057604051806020016040528060008152506109fb565b806109da846110f7565b6040516020016109eb929190611aac565b6040516020818303038152906040525b9392505050565b611388600d5410610a555760405162461bcd60e51b815260206004820152601860248201527f4d617820746f6b656e206c696d697420726561636865642e000000000000000060448201526064016105e3565b600b5460ff161580610a6d5750610a6b336107de565b155b610adf5760405162461bcd60e51b815260206004820152603960248201527f4d696e742072657665727465642064756520746f206c61636b206f662077686960448201527f74656c697374206f72206d696e742071756f7461206d65742e0000000000000060648201526084016105e3565b600b5460009060ff168015610afa5750610af8336107de565b155b15610b2c5733600090815260096020908152604080832054600890925290912054610b259190611b03565b9050610bfe565b600b5460ff16610bb657600e54341015610bae5760405162461bcd60e51b815260206004820152602260248201527f496e73756666696369656e74206d696e74696e672066656520737570706c696560448201527f642e00000000000000000000000000000000000000000000000000000000000060648201526084016105e3565b506001610bfe565b60405162461bcd60e51b815260206004820152601b60248201527f4e6f20746f6b656e7320656c696769626c6520746f206d696e742e000000000060448201526064016105e3565b60005b818110156105ac57610c1233611197565b80610c1c81611a93565b915050610c01565b610c2c610d5c565b6001600160a01b038116610c6f576040517f1e4fbdf7000000000000000000000000000000000000000000000000000000008152600060048201526024016105e3565b610c7881610ea8565b50565b60006001600160e01b031982167f80ac58cd000000000000000000000000000000000000000000000000000000001480610cde57506001600160e01b031982167f5b5e139f00000000000000000000000000000000000000000000000000000000145b806104e057507f01ffc9a7000000000000000000000000000000000000000000000000000000006001600160e01b03198316146104e0565b6000818152600260205260408120546001600160a01b0316806104e057604051637e27328960e01b8152600481018490526024016105e3565b610760838383600161126e565b6007546001600160a01b031633146108a2576040517f118cdaa70000000000000000000000000000000000000000000000000000000081523360048201526024016105e3565b6000828152600260205260408120546001600160a01b0390811690831615610dcf57610dcf8184866113b9565b6001600160a01b03811615610e0d57610dec60008560008061126e565b6001600160a01b038116600090815260036020526040902080546000190190555b6001600160a01b03851615610e3c576001600160a01b0385166000908152600360205260409020805460010190555b600084815260026020526040808220805473ffffffffffffffffffffffffffffffffffffffff19166001600160a01b0389811691821790925591518793918516917fddf252ad1be2c89b69c2b068fc378daa952ba7f163c4a11628f55a4df523b3ef91a4949350505050565b600780546001600160a01b0383811673ffffffffffffffffffffffffffffffffffffffff19831681179093556040519116919082907f8be0079c531659141344cd1fd0a4f28419497f9722a3daafe3b4186f6b6457e090600090a35050565b6001600160a01b038216610f52576040517f5b08ba180000000000000000000000000000000000000000000000000000000081526001600160a01b03831660048201526024016105e3565b6001600160a01b03838116600081815260056020908152604080832094871680845294825291829020805460ff191686151590811790915591519182527f17307eab39ab6107e8899845ad3d59bd9653f200f220920489ca2b5937696c31910160405180910390a3505050565b6001600160a01b0383163b1561066057604051630a85bd0160e11b81526001600160a01b0384169063150b7a0290611001903390889087908790600401611b16565b6020604051808303816000875af192505050801561103c575060408051601f3d908101601f1916820190925261103991810190611b52565b60015b6110a5573d80801561106a576040519150601f19603f3d011682016040523d82523d6000602084013e61106f565b606091505b50805160000361109d57604051633250574960e11b81526001600160a01b03851660048201526024016105e3565b805181602001fd5b6001600160e01b03198116630a85bd0160e11b146110e157604051633250574960e11b81526001600160a01b03851660048201526024016105e3565b5050505050565b6060600c80546104f590611a2d565b6060600061110483611436565b600101905060008167ffffffffffffffff8111156111245761112461174d565b6040519080825280601f01601f19166020018201604052801561114e576020820181803683370190505b5090508181016020015b600019017f3031323334353637383961626364656600000000000000000000000000000000600a86061a8153600a850494508461115857509392505050565b611388600d54106111ea5760405162461bcd60e51b815260206004820152601860248201527f4d617820746f6b656e206c696d697420726561636865642e000000000000000060448201526064016105e3565b600d80549060006111fa83611a93565b91905055505b600d546000908152600a602052604090205460ff161561123457600d805490600061122a83611a93565b9190505550611200565b600d546112418282611518565b6001600160a01b038216600090815260096020526040812080549161126583611a93565b91905055505050565b808061128257506001600160a01b03821615155b1561137c57600061129284610d16565b90506001600160a01b038316158015906112be5750826001600160a01b0316816001600160a01b031614155b80156112f057506001600160a01b0380821660009081526005602090815260408083209387168352929052205460ff16155b15611332576040517fa9fbf51f0000000000000000000000000000000000000000000000000000000081526001600160a01b03841660048201526024016105e3565b811561137a5783856001600160a01b0316826001600160a01b03167f8c5be1e5ebec7d5bd14f71427d1e84f3dd0314c0f7b2291e5b200ac8c7c3b92560405160405180910390a45b505b50506000908152600460205260409020805473ffffffffffffffffffffffffffffffffffffffff19166001600160a01b0392909216919091179055565b6113c4838383611596565b610760576001600160a01b0383166113f257604051637e27328960e01b8152600481018290526024016105e3565b6040517f177e802f0000000000000000000000000000000000000000000000000000000081526001600160a01b0383166004820152602481018290526044016105e3565b6000807a184f03e93ff9f4daa797ed6e38ed64bf6a1f010000000000000000831061147f577a184f03e93ff9f4daa797ed6e38ed64bf6a1f010000000000000000830492506040015b6d04ee2d6d415b85acef810000000083106114ab576d04ee2d6d415b85acef8100000000830492506020015b662386f26fc1000083106114c957662386f26fc10000830492506010015b6305f5e10083106114e1576305f5e100830492506008015b61271083106114f557612710830492506004015b60648310611507576064830492506002015b600a83106104e05760010192915050565b6001600160a01b03821661154257604051633250574960e11b8152600060048201526024016105e3565b600061155083836000610da2565b90506001600160a01b03811615610760576040517f73c6ac6e000000000000000000000000000000000000000000000000000000008152600060048201526024016105e3565b60006001600160a01b038316158015906116145750826001600160a01b0316846001600160a01b031614806115f057506001600160a01b0380851660009081526005602090815260408083209387168352929052205460ff165b8061161457506000828152600460205260409020546001600160a01b038481169116145b949350505050565b6001600160e01b031981168114610c7857600080fd5b60006020828403121561164457600080fd5b81356109fb8161161c565b60005b8381101561166a578181015183820152602001611652565b50506000910152565b6000815180845261168b81602086016020860161164f565b601f01601f19169290920160200192915050565b6020815260006109fb6020830184611673565b6000602082840312156116c457600080fd5b5035919050565b80356001600160a01b03811681146116e257600080fd5b919050565b600080604083850312156116fa57600080fd5b611703836116cb565b946020939093013593505050565b60008060006060848603121561172657600080fd5b61172f846116cb565b925061173d602085016116cb565b9150604084013590509250925092565b634e487b7160e01b600052604160045260246000fd5b604051601f8201601f1916810167ffffffffffffffff8111828210171561178c5761178c61174d565b604052919050565b600067ffffffffffffffff8211156117ae576117ae61174d565b5060051b60200190565b600082601f8301126117c957600080fd5b813560206117de6117d983611794565b611763565b82815260059290921b840181019181810190868411156117fd57600080fd5b8286015b848110156118185780358352918301918301611801565b509695505050505050565b6000806040838503121561183657600080fd5b823567ffffffffffffffff8082111561184e57600080fd5b818501915085601f83011261186257600080fd5b813560206118726117d983611794565b82815260059290921b8401810191818101908984111561189157600080fd5b948201945b838610156118b6576118a7866116cb565b82529482019490820190611896565b965050860135925050808211156118cc57600080fd5b506118d9858286016117b8565b9150509250929050565b6000602082840312156118f557600080fd5b6109fb826116cb565b6000806040838503121561191157600080fd5b61191a836116cb565b91506020830135801515811461192f57600080fd5b809150509250929050565b6000806000806080858703121561195057600080fd5b611959856116cb565b935060206119688187016116cb565b935060408601359250606086013567ffffffffffffffff8082111561198c57600080fd5b818801915088601f8301126119a057600080fd5b8135818111156119b2576119b261174d565b6119c4601f8201601f19168501611763565b915080825289848285010111156119da57600080fd5b808484018584013760008482840101525080935050505092959194509250565b60008060408385031215611a0d57600080fd5b611a16836116cb565b9150611a24602084016116cb565b90509250929050565b600181811c90821680611a4157607f821691505b602082108103611a6157634e487b7160e01b600052602260045260246000fd5b50919050565b634e487b7160e01b600052603260045260246000fd5b634e487b7160e01b600052601160045260246000fd5b600060018201611aa557611aa5611a7d565b5060010190565b60008351611abe81846020880161164f565b835190830190611ad281836020880161164f565b7f2e6a736f6e0000000000000000000000000000000000000000000000000000009101908152600501949350505050565b818103818111156104e0576104e0611a7d565b60006001600160a01b03808716835280861660208401525083604083015260806060830152611b486080830184611673565b9695505050505050565b600060208284031215611b6457600080fd5b81516109fb8161161c56fea2646970667358221220895cc17432c24a0671cdd699d47c151dd5ac85e7cca8fa6600228a5c8188a34864736f6c63430008140033",
  "linkReferences": {},
  "deployedLinkReferences": {}
}