{
  "_format": "hh-sol-artifact-1",
  "contractName": "VerifySignature",
  "sourceName": "contracts/VerifySignature.sol",
  "abi": [
    {
      "inputs": [
        {
          "internalType": "address[]",
          "name": "_allowedAddresses",
          "type": "address[]"
        }
      ],
      "stateMutability": "nonpayable",
      "type": "constructor"
    },
    {
      "anonymous": false,
      "inputs": [
        {
          "indexed": true,
          "internalType": "address",
          "name": "sender",
          "type": "address"
        },
        {
          "indexed": false,
          "internalType": "string",
          "name": "unsignedMessage",
          "type": "string"
        },
        {
          "indexed": false,
          "internalType": "bytes32",
          "name": "signedMessageHash",
          "type": "bytes32"
        }
      ],
      "name": "MessageVerifiedAndLogged",
      "type": "event"
    },
    {
      "anonymous": false,
      "inputs": [
        {
          "indexed": true,
          "internalType": "address",
          "name": "sender",
          "type": "address"
        },
        {
          "indexed": false,
          "internalType": "string",
          "name": "reason",
          "type": "string"
        }
      ],
      "name": "VerificationFailed",
      "type": "event"
    },
    {
      "inputs": [],
      "name": "getAllMessages",
      "outputs": [
        {
          "internalType": "address[]",
          "name": "",
          "type": "address[]"
        },
        {
          "components": [
            {
              "internalType": "string",
              "name": "unsignedMessage",
              "type": "string"
            },
            {
              "internalType": "bytes32",
              "name": "signedMessageHash",
              "type": "bytes32"
            }
          ],
          "internalType": "struct VerifySignature.MessagePair[]",
          "name": "",
          "type": "tuple[]"
        }
      ],
      "stateMutability": "view",
      "type": "function"
    },
    {
      "inputs": [
        {
          "internalType": "address",
          "name": "",
          "type": "address"
        }
      ],
      "name": "hasSubmitted",
      "outputs": [
        {
          "internalType": "bool",
          "name": "",
          "type": "bool"
        }
      ],
      "stateMutability": "view",
      "type": "function"
    },
    {
      "inputs": [
        {
          "internalType": "address",
          "name": "",
          "type": "address"
        }
      ],
      "name": "messages",
      "outputs": [
        {
          "internalType": "string",
          "name": "unsignedMessage",
          "type": "string"
        },
        {
          "internalType": "bytes32",
          "name": "signedMessageHash",
          "type": "bytes32"
        }
      ],
      "stateMutability": "view",
      "type": "function"
    },
    {
      "inputs": [
        {
          "internalType": "string",
          "name": "unsignedMessage",
          "type": "string"
        },
        {
          "internalType": "uint8",
          "name": "v",
          "type": "uint8"
        },
        {
          "internalType": "bytes32",
          "name": "r",
          "type": "bytes32"
        },
        {
          "internalType": "bytes32",
          "name": "s",
          "type": "bytes32"
        }
      ],
      "name": "submitMessage",
      "outputs": [],
      "stateMutability": "nonpayable",
      "type": "function"
    }
  ],
  "bytecode": "0x60806040523480156200001157600080fd5b5060405162000e9c38038062000e9c8339810160408190526200003491620000de565b60005b8151811015620000a3576001600260008484815181106200005c576200005c620001b0565b6020908102919091018101516001600160a01b03168252810191909152604001600020805460ff1916911515919091179055806200009a81620001c6565b91505062000037565b5050620001ee565b634e487b7160e01b600052604160045260246000fd5b80516001600160a01b0381168114620000d957600080fd5b919050565b60006020808385031215620000f257600080fd5b82516001600160401b03808211156200010a57600080fd5b818501915085601f8301126200011f57600080fd5b815181811115620001345762000134620000ab565b8060051b604051601f19603f830116810181811085821117156200015c576200015c620000ab565b6040529182528482019250838101850191888311156200017b57600080fd5b938501935b82851015620001a4576200019485620000c1565b8452938501939285019262000180565b98975050505050505050565b634e487b7160e01b600052603260045260246000fd5b600060018201620001e757634e487b7160e01b600052601160045260246000fd5b5060010190565b610c9e80620001fe6000396000f3fe608060405234801561001057600080fd5b506004361061004c5760003560e01c8063388044b31461005157806353f5e380146100895780635fdd59f81461009f578063a662dc8c146100c0575b600080fd5b61007461005f36600461084e565b60016020526000908152604090205460ff1681565b60405190151581526020015b60405180910390f35b6100916100d5565b6040516100809291906108ce565b6100b26100ad36600461084e565b610316565b604051610080929190610984565b6100d36100ce3660046109a6565b6103ba565b005b606080600060038054905067ffffffffffffffff8111156100f8576100f8610a3f565b604051908082528060200260200182016040528015610121578160200160208202803683370190505b5060035490915060009067ffffffffffffffff81111561014357610143610a3f565b60405190808252806020026020018201604052801561018957816020015b6040805180820190915260608152600060208201528152602001906001900390816101615790505b50905060005b60035481101561030c57600381815481106101ac576101ac610a55565b9060005260206000200160009054906101000a90046001600160a01b03168382815181106101dc576101dc610a55565b60200260200101906001600160a01b031690816001600160a01b0316815250506000806003838154811061021257610212610a55565b60009182526020808320909101546001600160a01b031683528201929092526040908101909120815180830190925280548290829061025090610a6b565b80601f016020809104026020016040519081016040528092919081815260200182805461027c90610a6b565b80156102c95780601f1061029e576101008083540402835291602001916102c9565b820191906000526020600020905b8154815290600101906020018083116102ac57829003601f168201915b505050505081526020016001820154815250508282815181106102ee576102ee610a55565b6020026020010181905250808061030490610aa5565b91505061018f565b5090939092509050565b60006020819052908152604090208054819061033190610a6b565b80601f016020809104026020016040519081016040528092919081815260200182805461035d90610a6b565b80156103aa5780601f1061037f576101008083540402835291602001916103aa565b820191906000526020600020905b81548152906001019060200180831161038d57829003601f168201915b5050505050908060010154905082565b3360009081526002602052604090205460ff1661041e5760405162461bcd60e51b815260206004820152601260248201527f53656e646572206e6f7420616c6c6f776564000000000000000000000000000060448201526064015b60405180910390fd5b3360009081526001602052604090205460ff16156104a45760405162461bcd60e51b815260206004820152602660248201527f53656e6465722068617320616c7265616479207375626d69747465642061206d60448201527f65737361676500000000000000000000000000000000000000000000000000006064820152608401610415565b60006104af856106cb565b905060008187876040516020016104c893929190610acc565b60408051601f198184030181528282528051602091820120600080855291840180845281905260ff89169284019290925260608301879052608083018690529092509060019060a0016020604051602081039080840390855afa158015610533573d6000803e3d6000fd5b5050604051601f1901519150506001600160a01b03811633146105985760405162461bcd60e51b815260206004820152601c60248201527f5369676e657220646f6573206e6f74206d617463682073656e646572000000006044820152606401610415565b6040805160606020601f8b018190040282018101835291810189815290918291908b908b9081908501838280828437600092018290525093855250505060209182018590526001600160a01b03841681529081905260409020815181906105ff9082610b6f565b506020918201516001918201556001600160a01b0383166000818152928290526040808420805460ff1916841790556003805493840181559093527fc2575a0e9e593c00f959f8c92f12db2869c3395a3b0502d05e2516446f71f85b90910180547fffffffffffffffffffffffff0000000000000000000000000000000000000000168217905590517f1bdc6afb1840d45f7c81e2b07064888ffd558f2912af8b3fb92752e6f8f9abd0906106b9908b908b908790610c2f565b60405180910390a25050505050505050565b606060006106d88361076b565b600101905060008167ffffffffffffffff8111156106f8576106f8610a3f565b6040519080825280601f01601f191660200182016040528015610722576020820181803683370190505b5090508181016020015b600019017f3031323334353637383961626364656600000000000000000000000000000000600a86061a8153600a850494508461072c57509392505050565b6000807a184f03e93ff9f4daa797ed6e38ed64bf6a1f01000000000000000083106107b4577a184f03e93ff9f4daa797ed6e38ed64bf6a1f010000000000000000830492506040015b6d04ee2d6d415b85acef810000000083106107e0576d04ee2d6d415b85acef8100000000830492506020015b662386f26fc1000083106107fe57662386f26fc10000830492506010015b6305f5e1008310610816576305f5e100830492506008015b612710831061082a57612710830492506004015b6064831061083c576064830492506002015b600a8310610848576001015b92915050565b60006020828403121561086057600080fd5b81356001600160a01b038116811461087757600080fd5b9392505050565b60005b83811015610899578181015183820152602001610881565b50506000910152565b600081518084526108ba81602086016020860161087e565b601f01601f19169290920160200192915050565b60408082528351828201819052600091906020906060850190828801855b828110156109115781516001600160a01b0316845292840192908401906001016108ec565b50505084810382860152855180825282820190600581901b8301840188850160005b8381101561097457858303601f19018552815180518985526109578a8601826108a2565b918901519489019490945294870194925090860190600101610933565b50909a9950505050505050505050565b60408152600061099760408301856108a2565b90508260208301529392505050565b6000806000806000608086880312156109be57600080fd5b853567ffffffffffffffff808211156109d657600080fd5b818801915088601f8301126109ea57600080fd5b8135818111156109f957600080fd5b896020828501011115610a0b57600080fd5b6020928301975095505086013560ff81168114610a2757600080fd5b94979396509394604081013594506060013592915050565b634e487b7160e01b600052604160045260246000fd5b634e487b7160e01b600052603260045260246000fd5b600181811c90821680610a7f57607f821691505b602082108103610a9f57634e487b7160e01b600052602260045260246000fd5b50919050565b600060018201610ac557634e487b7160e01b600052601160045260246000fd5b5060010190565b7f19457468657265756d205369676e6564204d6573736167653a0a000000000000815260008451610b0481601a85016020890161087e565b82018385601a83013760009301601a0192835250909392505050565b601f821115610b6a57600081815260208120601f850160051c81016020861015610b475750805b601f850160051c820191505b81811015610b6657828155600101610b53565b5050505b505050565b815167ffffffffffffffff811115610b8957610b89610a3f565b610b9d81610b978454610a6b565b84610b20565b602080601f831160018114610bd25760008415610bba5750858301515b600019600386901b1c1916600185901b178555610b66565b600085815260208120601f198616915b82811015610c0157888601518255948401946001909101908401610be2565b5085821015610c1f5787850151600019600388901b60f8161c191681555b5050505050600190811b01905550565b604081528260408201528284606083013760006060848301015260006060601f19601f860116830101905082602083015294935050505056fea264697066735822122023ca0eceb9f636f64728c4e5e582c7aaafe03b2b0870a467c3e01bd20f5245ec64736f6c63430008140033",
  "linkReferences": {},
  "deployedLinkReferences": {}
}